{
    "_format": "hh3-artifact-1",
    "contractName": "MyStableCoin",
    "sourceName": "contracts/HunBoli.sol",
    "abi": [
        {
            "inputs": [
                {
                    "internalType": "address",
                    "name": "adminAddress",
                    "type": "address"
                },
                {
                    "internalType": "uint256",
                    "name": "maxSupply",
                    "type": "uint256"
                }
            ],
            "stateMutability": "nonpayable",
            "type": "constructor"
        },
        {
            "inputs": [],
            "name": "AccessControlBadConfirmation",
            "type": "error"
        },
        {
            "inputs": [
                {
                    "internalType": "address",
                    "name": "account",
                    "type": "address"
                },
                {
                    "internalType": "bytes32",
                    "name": "neededRole",
                    "type": "bytes32"
                }
            ],
            "name": "AccessControlUnauthorizedAccount",
            "type": "error"
        },
        {
            "inputs": [
                {
                    "internalType": "address",
                    "name": "spender",
                    "type": "address"
                },
                {
                    "internalType": "uint256",
                    "name": "allowance",
                    "type": "uint256"
                },
                {
                    "internalType": "uint256",
                    "name": "needed",
                    "type": "uint256"
                }
            ],
            "name": "ERC20InsufficientAllowance",
            "type": "error"
        },
        {
            "inputs": [
                {
                    "internalType": "address",
                    "name": "sender",
                    "type": "address"
                },
                {
                    "internalType": "uint256",
                    "name": "balance",
                    "type": "uint256"
                },
                {
                    "internalType": "uint256",
                    "name": "needed",
                    "type": "uint256"
                }
            ],
            "name": "ERC20InsufficientBalance",
            "type": "error"
        },
        {
            "inputs": [
                {
                    "internalType": "address",
                    "name": "approver",
                    "type": "address"
                }
            ],
            "name": "ERC20InvalidApprover",
            "type": "error"
        },
        {
            "inputs": [
                {
                    "internalType": "address",
                    "name": "receiver",
                    "type": "address"
                }
            ],
            "name": "ERC20InvalidReceiver",
            "type": "error"
        },
        {
            "inputs": [
                {
                    "internalType": "address",
                    "name": "sender",
                    "type": "address"
                }
            ],
            "name": "ERC20InvalidSender",
            "type": "error"
        },
        {
            "inputs": [
                {
                    "internalType": "address",
                    "name": "spender",
                    "type": "address"
                }
            ],
            "name": "ERC20InvalidSpender",
            "type": "error"
        },
        {
            "inputs": [],
            "name": "EnforcedPause",
            "type": "error"
        },
        {
            "inputs": [],
            "name": "ExpectedPause",
            "type": "error"
        },
        {
            "anonymous": false,
            "inputs": [
                {
                    "indexed": true,
                    "internalType": "address",
                    "name": "account",
                    "type": "address"
                },
                {
                    "indexed": true,
                    "internalType": "address",
                    "name": "by",
                    "type": "address"
                }
            ],
            "name": "AddedToBlacklist",
            "type": "event"
        },
        {
            "anonymous": false,
            "inputs": [
                {
                    "indexed": true,
                    "internalType": "address",
                    "name": "owner",
                    "type": "address"
                },
                {
                    "indexed": true,
                    "internalType": "address",
                    "name": "spender",
                    "type": "address"
                },
                {
                    "indexed": false,
                    "internalType": "uint256",
                    "name": "value",
                    "type": "uint256"
                }
            ],
            "name": "Approval",
            "type": "event"
        },
        {
            "anonymous": false,
            "inputs": [
                {
                    "indexed": true,
                    "internalType": "address",
                    "name": "burner",
                    "type": "address"
                },
                {
                    "indexed": true,
                    "internalType": "address",
                    "name": "from",
                    "type": "address"
                },
                {
                    "indexed": false,
                    "internalType": "uint256",
                    "name": "amount",
                    "type": "uint256"
                }
            ],
            "name": "Burned",
            "type": "event"
        },
        {
            "anonymous": false,
            "inputs": [
                {
                    "indexed": true,
                    "internalType": "address",
                    "name": "user",
                    "type": "address"
                },
                {
                    "indexed": false,
                    "internalType": "uint256",
                    "name": "amount",
                    "type": "uint256"
                }
            ],
            "name": "Confiscated",
            "type": "event"
        },
        {
            "anonymous": false,
            "inputs": [
                {
                    "indexed": true,
                    "internalType": "address",
                    "name": "minter",
                    "type": "address"
                },
                {
                    "indexed": true,
                    "internalType": "address",
                    "name": "to",
                    "type": "address"
                },
                {
                    "indexed": false,
                    "internalType": "uint256",
                    "name": "amount",
                    "type": "uint256"
                }
            ],
            "name": "Minted",
            "type": "event"
        },
        {
            "anonymous": false,
            "inputs": [
                {
                    "indexed": false,
                    "internalType": "address",
                    "name": "account",
                    "type": "address"
                }
            ],
            "name": "Paused",
            "type": "event"
        },
        {
            "anonymous": false,
            "inputs": [
                {
                    "indexed": true,
                    "internalType": "address",
                    "name": "user",
                    "type": "address"
                },
                {
                    "indexed": false,
                    "internalType": "uint256",
                    "name": "amount",
                    "type": "uint256"
                }
            ],
            "name": "RedemptionFinalized",
            "type": "event"
        },
        {
            "anonymous": false,
            "inputs": [
                {
                    "indexed": true,
                    "internalType": "address",
                    "name": "user",
                    "type": "address"
                },
                {
                    "indexed": false,
                    "internalType": "uint256",
                    "name": "amount",
                    "type": "uint256"
                }
            ],
            "name": "RedemptionRejected",
            "type": "event"
        },
        {
            "anonymous": false,
            "inputs": [
                {
                    "indexed": true,
                    "internalType": "address",
                    "name": "user",
                    "type": "address"
                },
                {
                    "indexed": false,
                    "internalType": "uint256",
                    "name": "amount",
                    "type": "uint256"
                }
            ],
            "name": "RedemptionRequested",
            "type": "event"
        },
        {
            "anonymous": false,
            "inputs": [
                {
                    "indexed": true,
                    "internalType": "address",
                    "name": "account",
                    "type": "address"
                },
                {
                    "indexed": true,
                    "internalType": "address",
                    "name": "by",
                    "type": "address"
                }
            ],
            "name": "RemovedFromBlacklist",
            "type": "event"
        },
        {
            "anonymous": false,
            "inputs": [
                {
                    "indexed": true,
                    "internalType": "bytes32",
                    "name": "role",
                    "type": "bytes32"
                },
                {
                    "indexed": true,
                    "internalType": "bytes32",
                    "name": "previousAdminRole",
                    "type": "bytes32"
                },
                {
                    "indexed": true,
                    "internalType": "bytes32",
                    "name": "newAdminRole",
                    "type": "bytes32"
                }
            ],
            "name": "RoleAdminChanged",
            "type": "event"
        },
        {
            "anonymous": false,
            "inputs": [
                {
                    "indexed": true,
                    "internalType": "bytes32",
                    "name": "role",
                    "type": "bytes32"
                },
                {
                    "indexed": true,
                    "internalType": "address",
                    "name": "account",
                    "type": "address"
                },
                {
                    "indexed": true,
                    "internalType": "address",
                    "name": "sender",
                    "type": "address"
                }
            ],
            "name": "RoleGranted",
            "type": "event"
        },
        {
            "anonymous": false,
            "inputs": [
                {
                    "indexed": true,
                    "internalType": "bytes32",
                    "name": "role",
                    "type": "bytes32"
                },
                {
                    "indexed": true,
                    "internalType": "address",
                    "name": "account",
                    "type": "address"
                },
                {
                    "indexed": true,
                    "internalType": "address",
                    "name": "sender",
                    "type": "address"
                }
            ],
            "name": "RoleRevoked",
            "type": "event"
        },
        {
            "anonymous": false,
            "inputs": [
                {
                    "indexed": true,
                    "internalType": "address",
                    "name": "account",
                    "type": "address"
                }
            ],
            "name": "SystemPaused",
            "type": "event"
        },
        {
            "anonymous": false,
            "inputs": [
                {
                    "indexed": true,
                    "internalType": "address",
                    "name": "account",
                    "type": "address"
                }
            ],
            "name": "SystemUnpaused",
            "type": "event"
        },
        {
            "anonymous": false,
            "inputs": [
                {
                    "indexed": true,
                    "internalType": "address",
                    "name": "token",
                    "type": "address"
                },
                {
                    "indexed": true,
                    "internalType": "address",
                    "name": "to",
                    "type": "address"
                },
                {
                    "indexed": false,
                    "internalType": "uint256",
                    "name": "amount",
                    "type": "uint256"
                }
            ],
            "name": "TokensRecovered",
            "type": "event"
        },
        {
            "anonymous": false,
            "inputs": [
                {
                    "indexed": true,
                    "internalType": "address",
                    "name": "from",
                    "type": "address"
                },
                {
                    "indexed": true,
                    "internalType": "address",
                    "name": "to",
                    "type": "address"
                },
                {
                    "indexed": false,
                    "internalType": "uint256",
                    "name": "value",
                    "type": "uint256"
                }
            ],
            "name": "Transfer",
            "type": "event"
        },
        {
            "anonymous": false,
            "inputs": [
                {
                    "indexed": false,
                    "internalType": "address",
                    "name": "account",
                    "type": "address"
                }
            ],
            "name": "Unpaused",
            "type": "event"
        },
        {
            "inputs": [],
            "name": "BLACKLIST_MANAGER_ROLE",
            "outputs": [
                {
                    "internalType": "bytes32",
                    "name": "",
                    "type": "bytes32"
                }
            ],
            "stateMutability": "view",
            "type": "function"
        },
        {
            "inputs": [],
            "name": "BURNER_ROLE",
            "outputs": [
                {
                    "internalType": "bytes32",
                    "name": "",
                    "type": "bytes32"
                }
            ],
            "stateMutability": "view",
            "type": "function"
        },
        {
            "inputs": [],
            "name": "DEFAULT_ADMIN_ROLE",
            "outputs": [
                {
                    "internalType": "bytes32",
                    "name": "",
                    "type": "bytes32"
                }
            ],
            "stateMutability": "view",
            "type": "function"
        },
        {
            "inputs": [],
            "name": "MAX_SUPPLY",
            "outputs": [
                {
                    "internalType": "uint256",
                    "name": "",
                    "type": "uint256"
                }
            ],
            "stateMutability": "view",
            "type": "function"
        },
        {
            "inputs": [],
            "name": "MINTER_ROLE",
            "outputs": [
                {
                    "internalType": "bytes32",
                    "name": "",
                    "type": "bytes32"
                }
            ],
            "stateMutability": "view",
            "type": "function"
        },
        {
            "inputs": [],
            "name": "PAUSER_ROLE",
            "outputs": [
                {
                    "internalType": "bytes32",
                    "name": "",
                    "type": "bytes32"
                }
            ],
            "stateMutability": "view",
            "type": "function"
        },
        {
            "inputs": [
                {
                    "internalType": "address",
                    "name": "account",
                    "type": "address"
                }
            ],
            "name": "addToBlacklist",
            "outputs": [],
            "stateMutability": "nonpayable",
            "type": "function"
        },
        {
            "inputs": [
                {
                    "internalType": "address",
                    "name": "owner",
                    "type": "address"
                },
                {
                    "internalType": "address",
                    "name": "spender",
                    "type": "address"
                }
            ],
            "name": "allowance",
            "outputs": [
                {
                    "internalType": "uint256",
                    "name": "",
                    "type": "uint256"
                }
            ],
            "stateMutability": "view",
            "type": "function"
        },
        {
            "inputs": [
                {
                    "internalType": "address",
                    "name": "spender",
                    "type": "address"
                },
                {
                    "internalType": "uint256",
                    "name": "value",
                    "type": "uint256"
                }
            ],
            "name": "approve",
            "outputs": [
                {
                    "internalType": "bool",
                    "name": "",
                    "type": "bool"
                }
            ],
            "stateMutability": "nonpayable",
            "type": "function"
        },
        {
            "inputs": [
                {
                    "internalType": "address",
                    "name": "account",
                    "type": "address"
                }
            ],
            "name": "balanceOf",
            "outputs": [
                {
                    "internalType": "uint256",
                    "name": "",
                    "type": "uint256"
                }
            ],
            "stateMutability": "view",
            "type": "function"
        },
        {
            "inputs": [
                {
                    "internalType": "address",
                    "name": "user",
                    "type": "address"
                }
            ],
            "name": "confiscate",
            "outputs": [],
            "stateMutability": "nonpayable",
            "type": "function"
        },
        {
            "inputs": [],
            "name": "decimals",
            "outputs": [
                {
                    "internalType": "uint8",
                    "name": "",
                    "type": "uint8"
                }
            ],
            "stateMutability": "pure",
            "type": "function"
        },
        {
            "inputs": [
                {
                    "internalType": "address",
                    "name": "user",
                    "type": "address"
                },
                {
                    "internalType": "uint256",
                    "name": "amount",
                    "type": "uint256"
                }
            ],
            "name": "finalizeRedemption",
            "outputs": [],
            "stateMutability": "nonpayable",
            "type": "function"
        },
        {
            "inputs": [
                {
                    "internalType": "bytes32",
                    "name": "role",
                    "type": "bytes32"
                }
            ],
            "name": "getRoleAdmin",
            "outputs": [
                {
                    "internalType": "bytes32",
                    "name": "",
                    "type": "bytes32"
                }
            ],
            "stateMutability": "view",
            "type": "function"
        },
        {
            "inputs": [
                {
                    "internalType": "bytes32",
                    "name": "role",
                    "type": "bytes32"
                },
                {
                    "internalType": "address",
                    "name": "account",
                    "type": "address"
                }
            ],
            "name": "grantRole",
            "outputs": [],
            "stateMutability": "nonpayable",
            "type": "function"
        },
        {
            "inputs": [
                {
                    "internalType": "bytes32",
                    "name": "role",
                    "type": "bytes32"
                },
                {
                    "internalType": "address",
                    "name": "account",
                    "type": "address"
                }
            ],
            "name": "hasRole",
            "outputs": [
                {
                    "internalType": "bool",
                    "name": "",
                    "type": "bool"
                }
            ],
            "stateMutability": "view",
            "type": "function"
        },
        {
            "inputs": [
                {
                    "internalType": "address",
                    "name": "",
                    "type": "address"
                }
            ],
            "name": "isBlacklisted",
            "outputs": [
                {
                    "internalType": "bool",
                    "name": "",
                    "type": "bool"
                }
            ],
            "stateMutability": "view",
            "type": "function"
        },
        {
            "inputs": [
                {
                    "internalType": "address",
                    "name": "to",
                    "type": "address"
                },
                {
                    "internalType": "uint256",
                    "name": "amount",
                    "type": "uint256"
                }
            ],
            "name": "mint",
            "outputs": [],
            "stateMutability": "nonpayable",
            "type": "function"
        },
        {
            "inputs": [
                {
                    "internalType": "address[]",
                    "name": "recipients",
                    "type": "address[]"
                },
                {
                    "internalType": "uint256[]",
                    "name": "amounts",
                    "type": "uint256[]"
                }
            ],
            "name": "mintBatch",
            "outputs": [],
            "stateMutability": "nonpayable",
            "type": "function"
        },
        {
            "inputs": [],
            "name": "name",
            "outputs": [
                {
                    "internalType": "string",
                    "name": "",
                    "type": "string"
                }
            ],
            "stateMutability": "view",
            "type": "function"
        },
        {
            "inputs": [],
            "name": "pause",
            "outputs": [],
            "stateMutability": "nonpayable",
            "type": "function"
        },
        {
            "inputs": [],
            "name": "paused",
            "outputs": [
                {
                    "internalType": "bool",
                    "name": "",
                    "type": "bool"
                }
            ],
            "stateMutability": "view",
            "type": "function"
        },
        {
            "inputs": [
                {
                    "internalType": "address",
                    "name": "",
                    "type": "address"
                }
            ],
            "name": "pendingRedemptions",
            "outputs": [
                {
                    "internalType": "uint256",
                    "name": "",
                    "type": "uint256"
                }
            ],
            "stateMutability": "view",
            "type": "function"
        },
        {
            "inputs": [
                {
                    "internalType": "address",
                    "name": "tokenAddress",
                    "type": "address"
                },
                {
                    "internalType": "address",
                    "name": "to",
                    "type": "address"
                },
                {
                    "internalType": "uint256",
                    "name": "amount",
                    "type": "uint256"
                }
            ],
            "name": "recoverERC20",
            "outputs": [],
            "stateMutability": "nonpayable",
            "type": "function"
        },
        {
            "inputs": [
                {
                    "internalType": "address",
                    "name": "user",
                    "type": "address"
                },
                {
                    "internalType": "uint256",
                    "name": "amount",
                    "type": "uint256"
                }
            ],
            "name": "rejectRedemption",
            "outputs": [],
            "stateMutability": "nonpayable",
            "type": "function"
        },
        {
            "inputs": [
                {
                    "internalType": "address",
                    "name": "account",
                    "type": "address"
                }
            ],
            "name": "removeFromBlacklist",
            "outputs": [],
            "stateMutability": "nonpayable",
            "type": "function"
        },
        {
            "inputs": [
                {
                    "internalType": "bytes32",
                    "name": "role",
                    "type": "bytes32"
                },
                {
                    "internalType": "address",
                    "name": "callerConfirmation",
                    "type": "address"
                }
            ],
            "name": "renounceRole",
            "outputs": [],
            "stateMutability": "nonpayable",
            "type": "function"
        },
        {
            "inputs": [
                {
                    "internalType": "uint256",
                    "name": "amount",
                    "type": "uint256"
                }
            ],
            "name": "requestRedemption",
            "outputs": [],
            "stateMutability": "nonpayable",
            "type": "function"
        },
        {
            "inputs": [
                {
                    "internalType": "bytes32",
                    "name": "role",
                    "type": "bytes32"
                },
                {
                    "internalType": "address",
                    "name": "account",
                    "type": "address"
                }
            ],
            "name": "revokeRole",
            "outputs": [],
            "stateMutability": "nonpayable",
            "type": "function"
        },
        {
            "inputs": [
                {
                    "internalType": "bytes4",
                    "name": "interfaceId",
                    "type": "bytes4"
                }
            ],
            "name": "supportsInterface",
            "outputs": [
                {
                    "internalType": "bool",
                    "name": "",
                    "type": "bool"
                }
            ],
            "stateMutability": "view",
            "type": "function"
        },
        {
            "inputs": [],
            "name": "symbol",
            "outputs": [
                {
                    "internalType": "string",
                    "name": "",
                    "type": "string"
                }
            ],
            "stateMutability": "view",
            "type": "function"
        },
        {
            "inputs": [],
            "name": "totalSupply",
            "outputs": [
                {
                    "internalType": "uint256",
                    "name": "",
                    "type": "uint256"
                }
            ],
            "stateMutability": "view",
            "type": "function"
        },
        {
            "inputs": [
                {
                    "internalType": "address",
                    "name": "to",
                    "type": "address"
                },
                {
                    "internalType": "uint256",
                    "name": "value",
                    "type": "uint256"
                }
            ],
            "name": "transfer",
            "outputs": [
                {
                    "internalType": "bool",
                    "name": "",
                    "type": "bool"
                }
            ],
            "stateMutability": "nonpayable",
            "type": "function"
        },
        {
            "inputs": [
                {
                    "internalType": "address",
                    "name": "from",
                    "type": "address"
                },
                {
                    "internalType": "address",
                    "name": "to",
                    "type": "address"
                },
                {
                    "internalType": "uint256",
                    "name": "value",
                    "type": "uint256"
                }
            ],
            "name": "transferFrom",
            "outputs": [
                {
                    "internalType": "bool",
                    "name": "",
                    "type": "bool"
                }
            ],
            "stateMutability": "nonpayable",
            "type": "function"
        },
        {
            "inputs": [],
            "name": "unpause",
            "outputs": [],
            "stateMutability": "nonpayable",
            "type": "function"
        }
    ],
    "bytecode": "0x60a060405234801561000f575f5ffd5b5060405161423538038061423583398181016040528101906100319190610447565b6040518060400160405280600781526020017f48554e424f4c49000000000000000000000000000000000000000000000000008152506040518060400160405280600481526020017f424f42480000000000000000000000000000000000000000000000000000000081525081600390816100ac91906106b9565b5080600490816100bc91906106b9565b5050505f73ffffffffffffffffffffffffffffffffffffffff168273ffffffffffffffffffffffffffffffffffffffff160361012d576040517f08c379a0000000000000000000000000000000000000000000000000000000008152600401610124906107e2565b60405180910390fd5b5f811161016f576040517f08c379a000000000000000000000000000000000000000000000000000000000815260040161016690610870565b60405180910390fd5b6101815f5f1b8361025560201b60201c565b506101b27f9f2df0fed2c77648de5860a4cc508cd0818c85b8b8a1ab4ceeef8d981c8956a68361025560201b60201c565b506101e37f3c11d16cbaffd01df69ce1c404f6340ee057498f5f00246190ea54220576a8488361025560201b60201c565b506102147f65d7a28e3265b37a6474929f336521b332c1681b933f6cb9f3376673440d862a8361025560201b60201c565b506102457ff988e4fb62b8e14f4820fed03192306ddf4d7dbfa215595ba1c6ba4b76b369ee8361025560201b60201c565b508060808181525050505061088e565b5f610266838361034b60201b60201c565b61034157600160055f8581526020019081526020015f205f015f8473ffffffffffffffffffffffffffffffffffffffff1673ffffffffffffffffffffffffffffffffffffffff1681526020019081526020015f205f6101000a81548160ff0219169083151502179055506102de6103af60201b60201c565b73ffffffffffffffffffffffffffffffffffffffff168273ffffffffffffffffffffffffffffffffffffffff16847f2f8788117e7eff1d82e926ec794901d17c78024a50270940304540a733656f0d60405160405180910390a460019050610345565b5f90505b92915050565b5f60055f8481526020019081526020015f205f015f8373ffffffffffffffffffffffffffffffffffffffff1673ffffffffffffffffffffffffffffffffffffffff1681526020019081526020015f205f9054906101000a900460ff16905092915050565b5f33905090565b5f5ffd5b5f73ffffffffffffffffffffffffffffffffffffffff82169050919050565b5f6103e3826103ba565b9050919050565b6103f3816103d9565b81146103fd575f5ffd5b50565b5f8151905061040e816103ea565b92915050565b5f819050919050565b61042681610414565b8114610430575f5ffd5b50565b5f815190506104418161041d565b92915050565b5f5f6040838503121561045d5761045c6103b6565b5b5f61046a85828601610400565b925050602061047b85828601610433565b9150509250929050565b5f81519050919050565b7f4e487b71000000000000000000000000000000000000000000000000000000005f52604160045260245ffd5b7f4e487b71000000000000000000000000000000000000000000000000000000005f52602260045260245ffd5b5f600282049050600182168061050057607f821691505b602082108103610513576105126104bc565b5b50919050565b5f819050815f5260205f209050919050565b5f6020601f8301049050919050565b5f82821b905092915050565b5f600883026105757fffffffffffffffffffffffffffffffffffffffffffffffffffffffffffffffff8261053a565b61057f868361053a565b95508019841693508086168417925050509392505050565b5f819050919050565b5f6105ba6105b56105b084610414565b610597565b610414565b9050919050565b5f819050919050565b6105d3836105a0565b6105e76105df826105c1565b848454610546565b825550505050565b5f5f905090565b6105fe6105ef565b6106098184846105ca565b505050565b5b8181101561062c576106215f826105f6565b60018101905061060f565b5050565b601f8211156106715761064281610519565b61064b8461052b565b8101602085101561065a578190505b61066e6106668561052b565b83018261060e565b50505b505050565b5f82821c905092915050565b5f6106915f1984600802610676565b1980831691505092915050565b5f6106a98383610682565b9150826002028217905092915050565b6106c282610485565b67ffffffffffffffff8111156106db576106da61048f565b5b6106e582546104e9565b6106f0828285610630565b5f60209050601f831160018114610721575f841561070f578287015190505b610719858261069e565b865550610780565b601f19841661072f86610519565b5f5b8281101561075657848901518255600182019150602085019450602081019050610731565b86831015610773578489015161076f601f891682610682565b8355505b6001600288020188555050505b505050505050565b5f82825260208201905092915050565b7f41646d696e20616464726573732063616e6e6f74206265207a65726f000000005f82015250565b5f6107cc601c83610788565b91506107d782610798565b602082019050919050565b5f6020820190508181035f8301526107f9816107c0565b9050919050565b7f4d617820737570706c79206d7573742062652067726561746572207468616e205f8201527f7a65726f00000000000000000000000000000000000000000000000000000000602082015250565b5f61085a602483610788565b915061086582610800565b604082019050919050565b5f6020820190508181035f8301526108878161084e565b9050919050565b6080516139816108b45f395f8181610b8801528181610cc9015261162301526139815ff3fe608060405234801561000f575f5ffd5b506004361061020f575f3560e01c8063537df3b611610123578063a9059cbb116100ab578063e50fe9b91161007a578063e50fe9b9146105eb578063e63ab1e91461061b578063eeb3c91014610639578063f2197a7314610655578063fe575a87146106715761020f565b8063a9059cbb14610551578063d539139314610581578063d547741f1461059f578063dd62ed3e146105bb5761020f565b80637c88e3d9116100f25780637c88e3d9146104bf5780638456cb59146104db57806391d14854146104e557806395d89b4114610515578063a217fddf146105335761020f565b8063537df3b6146104395780635c975abb1461045557806363c019a31461047357806370a082311461048f5761020f565b80632f2ff15d116101a65780633f4ba83a116101755780633f4ba83a146103bd57806340c10f19146103c7578063410b2424146103e357806344337ea11461040157806344f252a01461041d5761020f565b80632f2ff15d14610349578063313ce5671461036557806332cb6b0c1461038357806336568abe146103a15761020f565b806318160ddd116101e257806318160ddd146102ad57806323b872dd146102cb578063248a9ca3146102fb578063282c51f31461032b5761020f565b806301ffc9a71461021357806306fdde0314610243578063095ea7b3146102615780631171bda914610291575b5f5ffd5b61022d60048036038101906102289190612af0565b6106a1565b60405161023a9190612b35565b60405180910390f35b61024b61071a565b6040516102589190612bbe565b60405180910390f35b61027b60048036038101906102769190612c6b565b6107aa565b6040516102889190612b35565b60405180910390f35b6102ab60048036038101906102a69190612ca9565b6107cc565b005b6102b5610ae4565b6040516102c29190612d08565b60405180910390f35b6102e560048036038101906102e09190612ca9565b610aed565b6040516102f29190612b35565b60405180910390f35b61031560048036038101906103109190612d54565b610b1b565b6040516103229190612d8e565b60405180910390f35b610333610b38565b6040516103409190612d8e565b60405180910390f35b610363600480360381019061035e9190612da7565b610b5c565b005b61036d610b7e565b60405161037a9190612e00565b60405180910390f35b61038b610b86565b6040516103989190612d08565b60405180910390f35b6103bb60048036038101906103b69190612da7565b610baa565b005b6103c5610c25565b005b6103e160048036038101906103dc9190612c6b565b610c9d565b005b6103eb610db0565b6040516103f89190612d8e565b60405180910390f35b61041b60048036038101906104169190612e19565b610dd4565b005b61043760048036038101906104329190612e19565b610f3b565b005b610453600480360381019061044e9190612e19565b6111bc565b005b61045d611321565b60405161046a9190612b35565b60405180910390f35b61048d60048036038101906104889190612c6b565b611336565b005b6104a960048036038101906104a49190612e19565b6114dc565b6040516104b69190612d08565b60405180910390f35b6104d960048036038101906104d49190612efa565b611521565b005b6104e36117ab565b005b6104ff60048036038101906104fa9190612da7565b611823565b60405161050c9190612b35565b60405180910390f35b61051d611887565b60405161052a9190612bbe565b60405180910390f35b61053b611917565b6040516105489190612d8e565b60405180910390f35b61056b60048036038101906105669190612c6b565b61191d565b6040516105789190612b35565b60405180910390f35b61058961193f565b6040516105969190612d8e565b60405180910390f35b6105b960048036038101906105b49190612da7565b611963565b005b6105d560048036038101906105d09190612f78565b611985565b6040516105e29190612d08565b60405180910390f35b61060560048036038101906106009190612e19565b611a07565b6040516106129190612d08565b60405180910390f35b610623611a1c565b6040516106309190612d8e565b60405180910390f35b610653600480360381019061064e9190612fb6565b611a40565b005b61066f600480360381019061066a9190612c6b565b611b3a565b005b61068b60048036038101906106869190612e19565b611d44565b6040516106989190612b35565b60405180910390f35b5f7f7965db0b000000000000000000000000000000000000000000000000000000007bffffffffffffffffffffffffffffffffffffffffffffffffffffffff1916827bffffffffffffffffffffffffffffffffffffffffffffffffffffffff19161480610713575061071282611d61565b5b9050919050565b6060600380546107299061300e565b80601f01602080910402602001604051908101604052809291908181526020018280546107559061300e565b80156107a05780601f10610777576101008083540402835291602001916107a0565b820191905f5260205f20905b81548152906001019060200180831161078357829003601f168201915b5050505050905090565b5f5f6107b4611dca565b90506107c1818585611dd1565b600191505092915050565b5f5f1b6107d881611de3565b3073ffffffffffffffffffffffffffffffffffffffff168473ffffffffffffffffffffffffffffffffffffffff1603610846576040517f08c379a000000000000000000000000000000000000000000000000000000000815260040161083d90613088565b60405180910390fd5b5f73ffffffffffffffffffffffffffffffffffffffff168373ffffffffffffffffffffffffffffffffffffffff16036108b4576040517f08c379a00000000000000000000000000000000000000000000000000000000081526004016108ab906130f0565b60405180910390fd5b5f82116108f6576040517f08c379a00000000000000000000000000000000000000000000000000000000081526004016108ed90613158565b60405180910390fd5b5f8490505f8173ffffffffffffffffffffffffffffffffffffffff166370a08231306040518263ffffffff1660e01b81526004016109349190613185565b602060405180830381865afa15801561094f573d5f5f3e3d5ffd5b505050506040513d601f19601f8201168201806040525081019061097391906131b2565b9050838110156109b8576040517f08c379a00000000000000000000000000000000000000000000000000000000081526004016109af90613227565b60405180910390fd5b5f8273ffffffffffffffffffffffffffffffffffffffff1663a9059cbb87876040518363ffffffff1660e01b81526004016109f4929190613245565b6020604051808303815f875af1158015610a10573d5f5f3e3d5ffd5b505050506040513d601f19601f82011682018060405250810190610a349190613296565b905080610a76576040517f08c379a0000000000000000000000000000000000000000000000000000000008152600401610a6d9061330b565b60405180910390fd5b8573ffffffffffffffffffffffffffffffffffffffff168773ffffffffffffffffffffffffffffffffffffffff167f401f439d865a766757ec78675925bd67198d5e78805aa41691b34b5d6a6cbbe687604051610ad39190612d08565b60405180910390a350505050505050565b5f600254905090565b5f5f610af7611dca565b9050610b04858285611df7565b610b0f858585611e8a565b60019150509392505050565b5f60055f8381526020019081526020015f20600101549050919050565b7f3c11d16cbaffd01df69ce1c404f6340ee057498f5f00246190ea54220576a84881565b610b6582610b1b565b610b6e81611de3565b610b788383611f7a565b50505050565b5f6006905090565b7f000000000000000000000000000000000000000000000000000000000000000081565b610bb2611dca565b73ffffffffffffffffffffffffffffffffffffffff168173ffffffffffffffffffffffffffffffffffffffff1614610c16576040517f6697b23200000000000000000000000000000000000000000000000000000000815260040160405180910390fd5b610c208282612064565b505050565b7f65d7a28e3265b37a6474929f336521b332c1681b933f6cb9f3376673440d862a610c4f81611de3565b610c5761214e565b3373ffffffffffffffffffffffffffffffffffffffff167f92414512bd79c80103975d8bef2f4e78aa5930c2869b4bd6139d98836ba8d91860405160405180910390a250565b7f9f2df0fed2c77648de5860a4cc508cd0818c85b8b8a1ab4ceeef8d981c8956a6610cc781611de3565b7f000000000000000000000000000000000000000000000000000000000000000082610cf1610ae4565b610cfb9190613356565b1115610d3c576040517f08c379a0000000000000000000000000000000000000000000000000000000008152600401610d33906133d3565b60405180910390fd5b610d4683836121af565b8273ffffffffffffffffffffffffffffffffffffffff163373ffffffffffffffffffffffffffffffffffffffff167f9d228d69b5fdb8d273a2336f8fb8612d039631024ea9bf09c424a9503aa078f084604051610da39190612d08565b60405180910390a3505050565b7ff988e4fb62b8e14f4820fed03192306ddf4d7dbfa215595ba1c6ba4b76b369ee81565b7ff988e4fb62b8e14f4820fed03192306ddf4d7dbfa215595ba1c6ba4b76b369ee610dfe81611de3565b60075f8373ffffffffffffffffffffffffffffffffffffffff1673ffffffffffffffffffffffffffffffffffffffff1681526020019081526020015f205f9054906101000a900460ff1615610e88576040517f08c379a0000000000000000000000000000000000000000000000000000000008152600401610e7f9061343b565b60405180910390fd5b600160075f8473ffffffffffffffffffffffffffffffffffffffff1673ffffffffffffffffffffffffffffffffffffffff1681526020019081526020015f205f6101000a81548160ff0219169083151502179055503373ffffffffffffffffffffffffffffffffffffffff168273ffffffffffffffffffffffffffffffffffffffff167f708802ac7da0a63d9f6b2df693b53345ad263e42d74c245110e1ec1e03a1567e60405160405180910390a35050565b7ff988e4fb62b8e14f4820fed03192306ddf4d7dbfa215595ba1c6ba4b76b369ee610f6581611de3565b60075f8373ffffffffffffffffffffffffffffffffffffffff1673ffffffffffffffffffffffffffffffffffffffff1681526020019081526020015f205f9054906101000a900460ff16610fee576040517f08c379a0000000000000000000000000000000000000000000000000000000008152600401610fe5906134a3565b60405180910390fd5b5f610ff8836114dc565b90505f60085f8573ffffffffffffffffffffffffffffffffffffffff1673ffffffffffffffffffffffffffffffffffffffff1681526020019081526020015f205490505f611045306114dc565b90505f8211156110df5781811015611092576040517f08c379a000000000000000000000000000000000000000000000000000000000815260040161108990613531565b60405180910390fd5b5f60085f8773ffffffffffffffffffffffffffffffffffffffff1673ffffffffffffffffffffffffffffffffffffffff1681526020019081526020015f20819055506110de308361222e565b5b5f8311156110f2576110f1858461222e565b5b5f82846110ff9190613356565b90508573ffffffffffffffffffffffffffffffffffffffff167f9dfaf550a5acb22698abd94e7bfd33c175cb3093c6cd48d0466b13a43dacaf74826040516111479190612d08565b60405180910390a28573ffffffffffffffffffffffffffffffffffffffff163373ffffffffffffffffffffffffffffffffffffffff167f6ab368f832c266c8eb942b84fbcaa20aedc24a699d2a05fae2568028733b1d09836040516111ac9190612d08565b60405180910390a3505050505050565b7ff988e4fb62b8e14f4820fed03192306ddf4d7dbfa215595ba1c6ba4b76b369ee6111e681611de3565b60075f8373ffffffffffffffffffffffffffffffffffffffff1673ffffffffffffffffffffffffffffffffffffffff1681526020019081526020015f205f9054906101000a900460ff1661126f576040517f08c379a000000000000000000000000000000000000000000000000000000000815260040161126690613599565b60405180910390fd5b5f60075f8473ffffffffffffffffffffffffffffffffffffffff1673ffffffffffffffffffffffffffffffffffffffff1681526020019081526020015f205f6101000a81548160ff0219169083151502179055503373ffffffffffffffffffffffffffffffffffffffff168273ffffffffffffffffffffffffffffffffffffffff167f576a9aef294e1b4baf3617fde4cbc80ba5344d5eb508222f29e558981704a45760405160405180910390a35050565b5f60065f9054906101000a900460ff16905090565b7f3c11d16cbaffd01df69ce1c404f6340ee057498f5f00246190ea54220576a84861136081611de3565b8160085f8573ffffffffffffffffffffffffffffffffffffffff1673ffffffffffffffffffffffffffffffffffffffff1681526020019081526020015f205410156113e0576040517f08c379a00000000000000000000000000000000000000000000000000000000081526004016113d790613601565b60405180910390fd5b816113ea306114dc565b101561142b576040517f08c379a000000000000000000000000000000000000000000000000000000000815260040161142290613669565b60405180910390fd5b8160085f8573ffffffffffffffffffffffffffffffffffffffff1673ffffffffffffffffffffffffffffffffffffffff1681526020019081526020015f205f8282546114779190613687565b92505081905550611489308484611e8a565b8273ffffffffffffffffffffffffffffffffffffffff167f9a39a28122569419e235d0eecbbf0e17746d3ce3af2145907700657307fdf2fa836040516114cf9190612d08565b60405180910390a2505050565b5f5f5f8373ffffffffffffffffffffffffffffffffffffffff1673ffffffffffffffffffffffffffffffffffffffff1681526020019081526020015f20549050919050565b7f9f2df0fed2c77648de5860a4cc508cd0818c85b8b8a1ab4ceeef8d981c8956a661154b81611de3565b828290508585905014611593576040517f08c379a000000000000000000000000000000000000000000000000000000000815260040161158a90613704565b60405180910390fd5b5f85859050116115d8576040517f08c379a00000000000000000000000000000000000000000000000000000000081526004016115cf9061376c565b60405180910390fd5b5f5f90505f5f90505b84849050811015611620578484828181106115ff576115fe61378a565b5b90506020020135826116119190613356565b915080806001019150506115e1565b507f00000000000000000000000000000000000000000000000000000000000000008161164b610ae4565b6116559190613356565b1115611696576040517f08c379a000000000000000000000000000000000000000000000000000000000815260040161168d906133d3565b60405180910390fd5b5f5f90505b868690508110156117a2576116f08787838181106116bc576116bb61378a565b5b90506020020160208101906116d19190612e19565b8686848181106116e4576116e361378a565b5b905060200201356121af565b8686828181106117035761170261378a565b5b90506020020160208101906117189190612e19565b73ffffffffffffffffffffffffffffffffffffffff163373ffffffffffffffffffffffffffffffffffffffff167f9d228d69b5fdb8d273a2336f8fb8612d039631024ea9bf09c424a9503aa078f08787858181106117795761177861378a565b5b9050602002013560405161178d9190612d08565b60405180910390a3808060010191505061169b565b50505050505050565b7f65d7a28e3265b37a6474929f336521b332c1681b933f6cb9f3376673440d862a6117d581611de3565b6117dd6122ad565b3373ffffffffffffffffffffffffffffffffffffffff167f0e453e53649b13b8c30ef82dd7bce6c745cfcc7a1dc95170b4750764194f19b260405160405180910390a250565b5f60055f8481526020019081526020015f205f015f8373ffffffffffffffffffffffffffffffffffffffff1673ffffffffffffffffffffffffffffffffffffffff1681526020019081526020015f205f9054906101000a900460ff16905092915050565b6060600480546118969061300e565b80601f01602080910402602001604051908101604052809291908181526020018280546118c29061300e565b801561190d5780601f106118e45761010080835404028352916020019161190d565b820191905f5260205f20905b8154815290600101906020018083116118f057829003601f168201915b5050505050905090565b5f5f1b81565b5f5f611927611dca565b9050611934818585611e8a565b600191505092915050565b7f9f2df0fed2c77648de5860a4cc508cd0818c85b8b8a1ab4ceeef8d981c8956a681565b61196c82610b1b565b61197581611de3565b61197f8383612064565b50505050565b5f60015f8473ffffffffffffffffffffffffffffffffffffffff1673ffffffffffffffffffffffffffffffffffffffff1681526020019081526020015f205f8373ffffffffffffffffffffffffffffffffffffffff1673ffffffffffffffffffffffffffffffffffffffff1681526020019081526020015f2054905092915050565b6008602052805f5260405f205f915090505481565b7f65d7a28e3265b37a6474929f336521b332c1681b933f6cb9f3376673440d862a81565b80611a4a336114dc565b1015611a8b576040517f08c379a0000000000000000000000000000000000000000000000000000000008152600401611a8290613801565b60405180910390fd5b8060085f3373ffffffffffffffffffffffffffffffffffffffff1673ffffffffffffffffffffffffffffffffffffffff1681526020019081526020015f205f828254611ad79190613356565b92505081905550611ae9333083611e8a565b3373ffffffffffffffffffffffffffffffffffffffff167f3779310b71beb93dce3cb4f282d1ee00e2a6c89891587b17c1842ba12f7d52a482604051611b2f9190612d08565b60405180910390a250565b7f3c11d16cbaffd01df69ce1c404f6340ee057498f5f00246190ea54220576a848611b6481611de3565b8160085f8573ffffffffffffffffffffffffffffffffffffffff1673ffffffffffffffffffffffffffffffffffffffff1681526020019081526020015f20541015611be4576040517f08c379a0000000000000000000000000000000000000000000000000000000008152600401611bdb90613601565b60405180910390fd5b81611bee306114dc565b1015611c2f576040517f08c379a0000000000000000000000000000000000000000000000000000000008152600401611c2690613669565b60405180910390fd5b8160085f8573ffffffffffffffffffffffffffffffffffffffff1673ffffffffffffffffffffffffffffffffffffffff1681526020019081526020015f205f828254611c7b9190613687565b92505081905550611c8c308361222e565b8273ffffffffffffffffffffffffffffffffffffffff167ff9262e45ad6cea81aab10599239ac19be960dd26b7b001159b192f7cd6615c2b83604051611cd29190612d08565b60405180910390a28273ffffffffffffffffffffffffffffffffffffffff163373ffffffffffffffffffffffffffffffffffffffff167f6ab368f832c266c8eb942b84fbcaa20aedc24a699d2a05fae2568028733b1d0984604051611d379190612d08565b60405180910390a3505050565b6007602052805f5260405f205f915054906101000a900460ff1681565b5f7f01ffc9a7000000000000000000000000000000000000000000000000000000007bffffffffffffffffffffffffffffffffffffffffffffffffffffffff1916827bffffffffffffffffffffffffffffffffffffffffffffffffffffffff1916149050919050565b5f33905090565b611dde838383600161230f565b505050565b611df481611def611dca565b6124de565b50565b5f611e028484611985565b90507fffffffffffffffffffffffffffffffffffffffffffffffffffffffffffffffff811015611e845781811015611e75578281836040517ffb8f41b2000000000000000000000000000000000000000000000000000000008152600401611e6c9392919061381f565b60405180910390fd5b611e8384848484035f61230f565b5b50505050565b5f73ffffffffffffffffffffffffffffffffffffffff168373ffffffffffffffffffffffffffffffffffffffff1603611efa575f6040517f96c6fd1e000000000000000000000000000000000000000000000000000000008152600401611ef19190613185565b60405180910390fd5b5f73ffffffffffffffffffffffffffffffffffffffff168273ffffffffffffffffffffffffffffffffffffffff1603611f6a575f6040517fec442f05000000000000000000000000000000000000000000000000000000008152600401611f619190613185565b60405180910390fd5b611f7583838361252f565b505050565b5f611f858383611823565b61205a57600160055f8581526020019081526020015f205f015f8473ffffffffffffffffffffffffffffffffffffffff1673ffffffffffffffffffffffffffffffffffffffff1681526020019081526020015f205f6101000a81548160ff021916908315150217905550611ff7611dca565b73ffffffffffffffffffffffffffffffffffffffff168273ffffffffffffffffffffffffffffffffffffffff16847f2f8788117e7eff1d82e926ec794901d17c78024a50270940304540a733656f0d60405160405180910390a46001905061205e565b5f90505b92915050565b5f61206f8383611823565b15612144575f60055f8581526020019081526020015f205f015f8473ffffffffffffffffffffffffffffffffffffffff1673ffffffffffffffffffffffffffffffffffffffff1681526020019081526020015f205f6101000a81548160ff0219169083151502179055506120e1611dca565b73ffffffffffffffffffffffffffffffffffffffff168273ffffffffffffffffffffffffffffffffffffffff16847ff6391f5c32d9c69d2a47ea670b442974b53935d1edc7fd64eb21e047a839171b60405160405180910390a460019050612148565b5f90505b92915050565b6121566126e6565b5f60065f6101000a81548160ff0219169083151502179055507f5db9ee0a495bf2e6ff9c91a7834c1ba4fdd244a5e8aa4e537bd38aeae4b073aa612198611dca565b6040516121a59190613185565b60405180910390a1565b5f73ffffffffffffffffffffffffffffffffffffffff168273ffffffffffffffffffffffffffffffffffffffff160361221f575f6040517fec442f050000000000000000000000000000000000000000000000000000000081526004016122169190613185565b60405180910390fd5b61222a5f838361252f565b5050565b5f73ffffffffffffffffffffffffffffffffffffffff168273ffffffffffffffffffffffffffffffffffffffff160361229e575f6040517f96c6fd1e0000000000000000000000000000000000000000000000000000000081526004016122959190613185565b60405180910390fd5b6122a9825f8361252f565b5050565b6122b5612726565b600160065f6101000a81548160ff0219169083151502179055507f62e78cea01bee320cd4e420270b5ea74000d11b0c9f74754ebdbfc544b05a2586122f8611dca565b6040516123059190613185565b60405180910390a1565b5f73ffffffffffffffffffffffffffffffffffffffff168473ffffffffffffffffffffffffffffffffffffffff160361237f575f6040517fe602df050000000000000000000000000000000000000000000000000000000081526004016123769190613185565b60405180910390fd5b5f73ffffffffffffffffffffffffffffffffffffffff168373ffffffffffffffffffffffffffffffffffffffff16036123ef575f6040517f94280d620000000000000000000000000000000000000000000000000000000081526004016123e69190613185565b60405180910390fd5b8160015f8673ffffffffffffffffffffffffffffffffffffffff1673ffffffffffffffffffffffffffffffffffffffff1681526020019081526020015f205f8573ffffffffffffffffffffffffffffffffffffffff1673ffffffffffffffffffffffffffffffffffffffff1681526020019081526020015f208190555080156124d8578273ffffffffffffffffffffffffffffffffffffffff168473ffffffffffffffffffffffffffffffffffffffff167f8c5be1e5ebec7d5bd14f71427d1e84f3dd0314c0f7b2291e5b200ac8c7c3b925846040516124cf9190612d08565b60405180910390a35b50505050565b6124e88282611823565b61252b5780826040517fe2517d3f000000000000000000000000000000000000000000000000000000008152600401612522929190613854565b60405180910390fd5b5050565b612537612726565b5f73ffffffffffffffffffffffffffffffffffffffff168373ffffffffffffffffffffffffffffffffffffffff16141580156125b9575060075f8473ffffffffffffffffffffffffffffffffffffffff1673ffffffffffffffffffffffffffffffffffffffff1681526020019081526020015f205f9054906101000a900460ff165b15612606576125c6612767565b612605576040517f08c379a00000000000000000000000000000000000000000000000000000000081526004016125fc906138c5565b60405180910390fd5b5b5f73ffffffffffffffffffffffffffffffffffffffff168273ffffffffffffffffffffffffffffffffffffffff1614158015612688575060075f8373ffffffffffffffffffffffffffffffffffffffff1673ffffffffffffffffffffffffffffffffffffffff1681526020019081526020015f205f9054906101000a900460ff165b156126d657612696836127d4565b6126d5576040517f08c379a00000000000000000000000000000000000000000000000000000000081526004016126cc9061392d565b60405180910390fd5b5b6126e183838361287a565b505050565b6126ee611321565b612724576040517f8dfc202b00000000000000000000000000000000000000000000000000000000815260040160405180910390fd5b565b61272e611321565b15612765576040517fd93c066500000000000000000000000000000000000000000000000000000000815260040160405180910390fd5b565b5f5f612771611dca565b905061279d7ff988e4fb62b8e14f4820fed03192306ddf4d7dbfa215595ba1c6ba4b76b369ee82611823565b806127ce57506127cd7f3c11d16cbaffd01df69ce1c404f6340ee057498f5f00246190ea54220576a84882611823565b5b91505090565b5f5f6127de611dca565b905061280a7f3c11d16cbaffd01df69ce1c404f6340ee057498f5f00246190ea54220576a84882611823565b8061283b575061283a7ff988e4fb62b8e14f4820fed03192306ddf4d7dbfa215595ba1c6ba4b76b369ee82611823565b5b801561287257503073ffffffffffffffffffffffffffffffffffffffff168373ffffffffffffffffffffffffffffffffffffffff16145b915050919050565b5f73ffffffffffffffffffffffffffffffffffffffff168373ffffffffffffffffffffffffffffffffffffffff16036128ca578060025f8282546128be9190613356565b92505081905550612998565b5f5f5f8573ffffffffffffffffffffffffffffffffffffffff1673ffffffffffffffffffffffffffffffffffffffff1681526020019081526020015f2054905081811015612953578381836040517fe450d38c00000000000000000000000000000000000000000000000000000000815260040161294a9392919061381f565b60405180910390fd5b8181035f5f8673ffffffffffffffffffffffffffffffffffffffff1673ffffffffffffffffffffffffffffffffffffffff1681526020019081526020015f2081905550505b5f73ffffffffffffffffffffffffffffffffffffffff168273ffffffffffffffffffffffffffffffffffffffff16036129df578060025f8282540392505081905550612a29565b805f5f8473ffffffffffffffffffffffffffffffffffffffff1673ffffffffffffffffffffffffffffffffffffffff1681526020019081526020015f205f82825401925050819055505b8173ffffffffffffffffffffffffffffffffffffffff168373ffffffffffffffffffffffffffffffffffffffff167fddf252ad1be2c89b69c2b068fc378daa952ba7f163c4a11628f55a4df523b3ef83604051612a869190612d08565b60405180910390a3505050565b5f5ffd5b5f5ffd5b5f7fffffffff0000000000000000000000000000000000000000000000000000000082169050919050565b612acf81612a9b565b8114612ad9575f5ffd5b50565b5f81359050612aea81612ac6565b92915050565b5f60208284031215612b0557612b04612a93565b5b5f612b1284828501612adc565b91505092915050565b5f8115159050919050565b612b2f81612b1b565b82525050565b5f602082019050612b485f830184612b26565b92915050565b5f81519050919050565b5f82825260208201905092915050565b8281835e5f83830152505050565b5f601f19601f8301169050919050565b5f612b9082612b4e565b612b9a8185612b58565b9350612baa818560208601612b68565b612bb381612b76565b840191505092915050565b5f6020820190508181035f830152612bd68184612b86565b905092915050565b5f73ffffffffffffffffffffffffffffffffffffffff82169050919050565b5f612c0782612bde565b9050919050565b612c1781612bfd565b8114612c21575f5ffd5b50565b5f81359050612c3281612c0e565b92915050565b5f819050919050565b612c4a81612c38565b8114612c54575f5ffd5b50565b5f81359050612c6581612c41565b92915050565b5f5f60408385031215612c8157612c80612a93565b5b5f612c8e85828601612c24565b9250506020612c9f85828601612c57565b9150509250929050565b5f5f5f60608486031215612cc057612cbf612a93565b5b5f612ccd86828701612c24565b9350506020612cde86828701612c24565b9250506040612cef86828701612c57565b9150509250925092565b612d0281612c38565b82525050565b5f602082019050612d1b5f830184612cf9565b92915050565b5f819050919050565b612d3381612d21565b8114612d3d575f5ffd5b50565b5f81359050612d4e81612d2a565b92915050565b5f60208284031215612d6957612d68612a93565b5b5f612d7684828501612d40565b91505092915050565b612d8881612d21565b82525050565b5f602082019050612da15f830184612d7f565b92915050565b5f5f60408385031215612dbd57612dbc612a93565b5b5f612dca85828601612d40565b9250506020612ddb85828601612c24565b9150509250929050565b5f60ff82169050919050565b612dfa81612de5565b82525050565b5f602082019050612e135f830184612df1565b92915050565b5f60208284031215612e2e57612e2d612a93565b5b5f612e3b84828501612c24565b91505092915050565b5f5ffd5b5f5ffd5b5f5ffd5b5f5f83601f840112612e6557612e64612e44565b5b8235905067ffffffffffffffff811115612e8257612e81612e48565b5b602083019150836020820283011115612e9e57612e9d612e4c565b5b9250929050565b5f5f83601f840112612eba57612eb9612e44565b5b8235905067ffffffffffffffff811115612ed757612ed6612e48565b5b602083019150836020820283011115612ef357612ef2612e4c565b5b9250929050565b5f5f5f5f60408587031215612f1257612f11612a93565b5b5f85013567ffffffffffffffff811115612f2f57612f2e612a97565b5b612f3b87828801612e50565b9450945050602085013567ffffffffffffffff811115612f5e57612f5d612a97565b5b612f6a87828801612ea5565b925092505092959194509250565b5f5f60408385031215612f8e57612f8d612a93565b5b5f612f9b85828601612c24565b9250506020612fac85828601612c24565b9150509250929050565b5f60208284031215612fcb57612fca612a93565b5b5f612fd884828501612c57565b91505092915050565b7f4e487b71000000000000000000000000000000000000000000000000000000005f52602260045260245ffd5b5f600282049050600182168061302557607f821691505b60208210810361303857613037612fe1565b5b50919050565b7f43616e6e6f74207265636f766572206f776e20746f6b656e00000000000000005f82015250565b5f613072601883612b58565b915061307d8261303e565b602082019050919050565b5f6020820190508181035f83015261309f81613066565b9050919050565b7f43616e6e6f74207265636f76657220746f207a65726f206164647265737300005f82015250565b5f6130da601e83612b58565b91506130e5826130a6565b602082019050919050565b5f6020820190508181035f830152613107816130ce565b9050919050565b7f416d6f756e74206d7573742062652067726561746572207468616e207a65726f5f82015250565b5f613142602083612b58565b915061314d8261310e565b602082019050919050565b5f6020820190508181035f83015261316f81613136565b9050919050565b61317f81612bfd565b82525050565b5f6020820190506131985f830184613176565b92915050565b5f815190506131ac81612c41565b92915050565b5f602082840312156131c7576131c6612a93565b5b5f6131d48482850161319e565b91505092915050565b7f496e73756666696369656e7420746f6b656e2062616c616e63650000000000005f82015250565b5f613211601a83612b58565b915061321c826131dd565b602082019050919050565b5f6020820190508181035f83015261323e81613205565b9050919050565b5f6040820190506132585f830185613176565b6132656020830184612cf9565b9392505050565b61327581612b1b565b811461327f575f5ffd5b50565b5f815190506132908161326c565b92915050565b5f602082840312156132ab576132aa612a93565b5b5f6132b884828501613282565b91505092915050565b7f546f6b656e207472616e73666572206661696c656400000000000000000000005f82015250565b5f6132f5601583612b58565b9150613300826132c1565b602082019050919050565b5f6020820190508181035f830152613322816132e9565b9050919050565b7f4e487b71000000000000000000000000000000000000000000000000000000005f52601160045260245ffd5b5f61336082612c38565b915061336b83612c38565b925082820190508082111561338357613382613329565b5b92915050565b7f45786365656473206d6178696d756d20737570706c79000000000000000000005f82015250565b5f6133bd601683612b58565b91506133c882613389565b602082019050919050565b5f6020820190508181035f8301526133ea816133b1565b9050919050565b7f4163636f756e7420616c726561647920626c61636b6c697374656400000000005f82015250565b5f613425601b83612b58565b9150613430826133f1565b602082019050919050565b5f6020820190508181035f83015261345281613419565b9050919050565b7f55736572206973206e6f7420626c61636b6c69737465640000000000000000005f82015250565b5f61348d601783612b58565b915061349882613459565b602082019050919050565b5f6020820190508181035f8301526134ba81613481565b9050919050565b7f436f6e74726163742068617320696e73756666696369656e742062616c616e635f8201527f6520666f722070656e64696e6720726564656d7074696f6e7300000000000000602082015250565b5f61351b603983612b58565b9150613526826134c1565b604082019050919050565b5f6020820190508181035f8301526135488161350f565b9050919050565b7f4163636f756e74206e6f7420626c61636b6c69737465640000000000000000005f82015250565b5f613583601783612b58565b915061358e8261354f565b602082019050919050565b5f6020820190508181035f8301526135b081613577565b9050919050565b7f4d6f6e746f20696e636f72726563746f000000000000000000000000000000005f82015250565b5f6135eb601083612b58565b91506135f6826135b7565b602082019050919050565b5f6020820190508181035f830152613618816135df565b9050919050565b7f4e6f2068617920746f6b656e7320656e20637573746f646961000000000000005f82015250565b5f613653601983612b58565b915061365e8261361f565b602082019050919050565b5f6020820190508181035f83015261368081613647565b9050919050565b5f61369182612c38565b915061369c83612c38565b92508282039050818111156136b4576136b3613329565b5b92915050565b7f417272617973206c656e677468206d69736d61746368000000000000000000005f82015250565b5f6136ee601683612b58565b91506136f9826136ba565b602082019050919050565b5f6020820190508181035f83015261371b816136e2565b9050919050565b7f456d7074792061727261797300000000000000000000000000000000000000005f82015250565b5f613756600c83612b58565b915061376182613722565b602082019050919050565b5f6020820190508181035f8301526137838161374a565b9050919050565b7f4e487b71000000000000000000000000000000000000000000000000000000005f52603260045260245ffd5b7f53616c646f20696e737566696369656e746500000000000000000000000000005f82015250565b5f6137eb601283612b58565b91506137f6826137b7565b602082019050919050565b5f6020820190508181035f830152613818816137df565b9050919050565b5f6060820190506138325f830186613176565b61383f6020830185612cf9565b61384c6040830184612cf9565b949350505050565b5f6040820190506138675f830185613176565b6138746020830184612d7f565b9392505050565b7f53656e64657220697320626c61636b6c697374656400000000000000000000005f82015250565b5f6138af601583612b58565b91506138ba8261387b565b602082019050919050565b5f6020820190508181035f8301526138dc816138a3565b9050919050565b7f526563697069656e7420697320626c61636b6c697374656400000000000000005f82015250565b5f613917601883612b58565b9150613922826138e3565b602082019050919050565b5f6020820190508181035f8301526139448161390b565b905091905056fea26469706673582212200a98fbe888afef45a793f1ec3a141eb247cb856a724bc005bf23875fed7776a864736f6c634300081c0033",
    "linkReferences": {},
    "deployedLinkReferences": {},
    "immutableReferences": {
        "1342": [
            {
                "length": 32,
                "start": 2952
            },
            {
                "length": 32,
                "start": 3273
            },
            {
                "length": 32,
                "start": 5667
            }
        ]
    },
    "inputSourceName": "project/contracts/HunBoli.sol",
    "buildInfoId": "solc-0_8_28-c48935f899161111d630d04c6105d541e8a931b1"
}